{
  "contractName": "Albumes",
  "abi": [
    {
      "constant": true,
      "inputs": [
        {
          "internalType": "uint256",
          "name": "",
          "type": "uint256"
        }
      ],
      "name": "albumes",
      "outputs": [
        {
          "internalType": "uint256",
          "name": "CantidadCanciones",
          "type": "uint256"
        },
        {
          "internalType": "uint256",
          "name": "id",
          "type": "uint256"
        },
        {
          "internalType": "string",
          "name": "NombreAlbum",
          "type": "string"
        },
        {
          "internalType": "string",
          "name": "ArtistaAlbum",
          "type": "string"
        }
      ],
      "payable": false,
      "stateMutability": "view",
      "type": "function"
    },
    {
      "constant": false,
      "inputs": [
        {
          "internalType": "string",
          "name": "_Nombre",
          "type": "string"
        },
        {
          "internalType": "string",
          "name": "_Artista",
          "type": "string"
        }
      ],
      "name": "agregarAlbum",
      "outputs": [],
      "payable": false,
      "stateMutability": "nonpayable",
      "type": "function"
    },
    {
      "constant": false,
      "inputs": [
        {
          "internalType": "uint256",
          "name": "id_album",
          "type": "uint256"
        },
        {
          "internalType": "string",
          "name": "_NombreCancion",
          "type": "string"
        },
        {
          "internalType": "string",
          "name": "_Genero",
          "type": "string"
        },
        {
          "internalType": "uint256",
          "name": "_DuracionSegundos",
          "type": "uint256"
        }
      ],
      "name": "agregarCancion",
      "outputs": [],
      "payable": false,
      "stateMutability": "nonpayable",
      "type": "function"
    }
  ],
  "bytecode": "0x608060405234801561001057600080fd5b506106cd806100206000396000f3fe608060405234801561001057600080fd5b50600436106100415760003560e01c806361bb827014610046578063bc7a223014610171578063eb0c8d001461027a575b600080fd5b61016f6004803603604081101561005c57600080fd5b810190602081018135600160201b81111561007657600080fd5b82018360208201111561008857600080fd5b803590602001918460018302840111600160201b831117156100a957600080fd5b91908080601f0160208091040260200160405190810160405280939291908181526020018383808284376000920191909152509295949360208101935035915050600160201b8111156100fb57600080fd5b82018360208201111561010d57600080fd5b803590602001918460018302840111600160201b8311171561012e57600080fd5b91908080601f0160208091040260200160405190810160405280939291908181526020018383808284376000920191909152509295506103ac945050505050565b005b61018e6004803603602081101561018757600080fd5b5035610419565b604051808581526020018481526020018060200180602001838103835285818151815260200191508051906020019080838360005b838110156101db5781810151838201526020016101c3565b50505050905090810190601f1680156102085780820380516001836020036101000a031916815260200191505b50838103825284518152845160209182019186019080838360005b8381101561023b578181015183820152602001610223565b50505050905090810190601f1680156102685780820380516001836020036101000a031916815260200191505b50965050505050505060405180910390f35b61016f6004803603608081101561029057600080fd5b81359190810190604081016020820135600160201b8111156102b157600080fd5b8201836020820111156102c357600080fd5b803590602001918460018302840111600160201b831117156102e457600080fd5b91908080601f0160208091040260200160405190810160405280939291908181526020018383808284376000920191909152509295949360208101935035915050600160201b81111561033657600080fd5b82018360208201111561034857600080fd5b803590602001918460018302840111600160201b8311171561036957600080fd5b91908080601f016020809104026020016040519081016040528093929190818152602001838380828437600092019190915250929550509135925061056b915050565b600080546001908101808355808352602082815260409093209182015583516103dd926002909201918501906105fd565b506000805481526001602090815260409091208251610404926003909201918401906105fd565b50506000805481526001602052604081205550565b6001602052806000526040600020600091509050806000015490806001015490806002018054600181600116156101000203166002900480601f0160208091040260200160405190810160405280929190818152602001828054600181600116156101000203166002900480156104d15780601f106104a6576101008083540402835291602001916104d1565b820191906000526020600020905b8154815290600101906020018083116104b457829003601f168201915b5050505060038301805460408051602060026001851615610100026000190190941693909304601f81018490048402820184019092528181529495949350908301828280156105615780601f1061053657610100808354040283529160200191610561565b820191906000526020600020905b81548152906001019060200180831161054457829003601f168201915b5050505050905084565b6000848152600160208181526040808420805490930180845580855260049093018252909220855191926105a292908701906105fd565b506000858152600160208181526040808420858552600401825290922085516105d3939190920191908601906105fd565b50600094855260016020908152604080872092875260049092019052909320600201929092555050565b828054600181600116156101000203166002900490600052602060002090601f016020900481019282601f1061063e57805160ff191683800117855561066b565b8280016001018555821561066b579182015b8281111561066b578251825591602001919060010190610650565b5061067792915061067b565b5090565b61069591905b808211156106775760008155600101610681565b9056fea265627a7a72315820a7b01ab818d4cb684d53165d0cd3b28213fa867ff91409cb9a6e3f70148bf1ca64736f6c63430005100032",
  "source": "pragma solidity >=0.4.22 <0.8.0;\r\n\r\ncontract Albumes{\r\n\r\n    uint CantidadAlbumes;\r\n\r\n    struct Cancion{\r\n        string NombreCancion;\r\n        string Genero;\r\n        uint DuracionSegundos;\r\n    }\r\n\r\n    struct Album{\r\n        uint CantidadCanciones;\r\n        uint id;\r\n        string NombreAlbum;\r\n        string ArtistaAlbum;\r\n        mapping (uint => Cancion) canciones;\r\n    }\r\n\r\n    mapping (uint => Album) public albumes;\r\n\r\n\r\n    function agregarAlbum(string memory _Nombre, string memory _Artista) public{\r\n        CantidadAlbumes++;\r\n        albumes[CantidadAlbumes].id = CantidadAlbumes;\r\n        albumes[CantidadAlbumes].NombreAlbum = _Nombre;\r\n        albumes[CantidadAlbumes].ArtistaAlbum= _Artista;\r\n        albumes[CantidadAlbumes].CantidadCanciones = 0;\r\n\r\n    }\r\n\r\n    function agregarCancion (uint id_album, string memory _NombreCancion, string memory _Genero, uint _DuracionSegundos) public {\r\n        albumes[id_album].CantidadCanciones++;\r\n        uint indice = albumes[id_album].CantidadCanciones;\r\n        albumes[id_album].canciones[indice].NombreCancion = _NombreCancion;\r\n        albumes[id_album].canciones[indice].Genero = _Genero;\r\n        albumes[id_album].canciones[indice].DuracionSegundos = _DuracionSegundos;\r\n\r\n    }\r\n\r\n\r\n\r\n\r\n\r\n}",
  "sourcePath": "C:/Users/GL 502V2/Desktop/Spotify-BlockChain/blockchain/contracts/Album.sol",
  "compiler": {
    "name": "solc",
    "version": "0.5.16+commit.9c3226ce.Emscripten.clang"
  },
  "schemaVersion": "3.3.3",
  "updatedAt": "2020-12-21T12:03:57.158Z",
  "networkType": "ethereum",
  "devdoc": {
    "methods": {}
  },
  "userdoc": {
    "methods": {}
  }
}