{
  "contractName": "Albumes",
  "abi": [
    {
      "constant": true,
      "inputs": [],
      "name": "CantidadAlbumes",
      "outputs": [
        {
          "internalType": "uint256",
          "name": "",
          "type": "uint256"
        }
      ],
      "payable": false,
      "stateMutability": "view",
      "type": "function"
    },
    {
      "constant": true,
      "inputs": [
        {
          "internalType": "uint256",
          "name": "",
          "type": "uint256"
        }
      ],
      "name": "albumes",
      "outputs": [
        {
          "internalType": "uint256",
          "name": "CantidadCanciones",
          "type": "uint256"
        },
        {
          "internalType": "uint256",
          "name": "id",
          "type": "uint256"
        },
        {
          "internalType": "string",
          "name": "NombreAlbum",
          "type": "string"
        },
        {
          "internalType": "string",
          "name": "ArtistaAlbum",
          "type": "string"
        }
      ],
      "payable": false,
      "stateMutability": "view",
      "type": "function"
    },
    {
      "constant": false,
      "inputs": [
        {
          "internalType": "string",
          "name": "_Nombre",
          "type": "string"
        },
        {
          "internalType": "string",
          "name": "_Artista",
          "type": "string"
        }
      ],
      "name": "agregarAlbum",
      "outputs": [],
      "payable": false,
      "stateMutability": "nonpayable",
      "type": "function"
    },
    {
      "constant": false,
      "inputs": [
        {
          "internalType": "uint256",
          "name": "id_album",
          "type": "uint256"
        },
        {
          "internalType": "string",
          "name": "_NombreCancion",
          "type": "string"
        },
        {
          "internalType": "string",
          "name": "_Genero",
          "type": "string"
        },
        {
          "internalType": "uint256",
          "name": "_DuracionSegundos",
          "type": "uint256"
        }
      ],
      "name": "agregarCancion",
      "outputs": [],
      "payable": false,
      "stateMutability": "nonpayable",
      "type": "function"
    }
  ],
  "bytecode": "0x608060405234801561001057600080fd5b50610825806100206000396000f3fe608060405234801561001057600080fd5b506004361061004c5760003560e01c806361aa6da21461005157806361bb82701461006f578063bc7a2230146101c1578063eb0c8d00146102e2575b600080fd5b610059610448565b6040518082815260200191505060405180910390f35b6101bf6004803603604081101561008557600080fd5b81019080803590602001906401000000008111156100a257600080fd5b8201836020820111156100b457600080fd5b803590602001918460018302840111640100000000831117156100d657600080fd5b91908080601f016020809104026020016040519081016040528093929190818152602001838380828437600081840152601f19601f8201169050808301925050505050505091929192908035906020019064010000000081111561013957600080fd5b82018360208201111561014b57600080fd5b8035906020019184600183028401116401000000008311171561016d57600080fd5b91908080601f016020809104026020016040519081016040528093929190818152602001838380828437600081840152601f19601f82011690508083019250505050505050919291929050505061044e565b005b6101ed600480360360208110156101d757600080fd5b81019080803590602001909291905050506104f6565b604051808581526020018481526020018060200180602001838103835285818151815260200191508051906020019080838360005b8381101561023d578082015181840152602081019050610222565b50505050905090810190601f16801561026a5780820380516001836020036101000a031916815260200191505b50838103825284818151815260200191508051906020019080838360005b838110156102a3578082015181840152602081019050610288565b50505050905090810190601f1680156102d05780820380516001836020036101000a031916815260200191505b50965050505050505060405180910390f35b610446600480360360808110156102f857600080fd5b81019080803590602001909291908035906020019064010000000081111561031f57600080fd5b82018360208201111561033157600080fd5b8035906020019184600183028401116401000000008311171561035357600080fd5b91908080601f016020809104026020016040519081016040528093929190818152602001838380828437600081840152601f19601f820116905080830192505050505050509192919290803590602001906401000000008111156103b657600080fd5b8201836020820111156103c857600080fd5b803590602001918460018302840111640100000000831117156103ea57600080fd5b91908080601f016020809104026020016040519081016040528093929190818152602001838380828437600081840152601f19601f82011690508083019250505050505050919291929080359060200190929190505050610656565b005b60005481565b600080815480929190600101919050555060005460016000805481526020019081526020016000206001018190555081600160008054815260200190815260200160002060020190805190602001906104a892919061074b565b5080600160008054815260200190815260200160002060030190805190602001906104d492919061074b565b5060006001600080548152602001908152602001600020600001819055505050565b6001602052806000526040600020600091509050806000015490806001015490806002018054600181600116156101000203166002900480601f0160208091040260200160405190810160405280929190818152602001828054600181600116156101000203166002900480156105ae5780601f10610583576101008083540402835291602001916105ae565b820191906000526020600020905b81548152906001019060200180831161059157829003601f168201915b505050505090806003018054600181600116156101000203166002900480601f01602080910402602001604051908101604052809291908181526020018280546001816001161561010002031660029004801561064c5780601f106106215761010080835404028352916020019161064c565b820191906000526020600020905b81548152906001019060200180831161062f57829003601f168201915b5050505050905084565b60016000858152602001908152602001600020600001600081548092919060010191905055506000600160008681526020019081526020016000206000015490508360016000878152602001908152602001600020600401600083815260200190815260200160002060000190805190602001906106d592919061074b565b5082600160008781526020019081526020016000206004016000838152602001908152602001600020600101908051906020019061071492919061074b565b5081600160008781526020019081526020016000206004016000838152602001908152602001600020600201819055505050505050565b828054600181600116156101000203166002900490600052602060002090601f016020900481019282601f1061078c57805160ff19168380011785556107ba565b828001600101855582156107ba579182015b828111156107b957825182559160200191906001019061079e565b5b5090506107c791906107cb565b5090565b6107ed91905b808211156107e95760008160009055506001016107d1565b5090565b9056fea265627a7a72315820dbf419ef083699d6b2ee122be0bd364ca82ccc8120628da3bd0fc858682e8f8064736f6c63430005100032",
  "source": "pragma solidity >=0.4.22 <0.8.0;\r\n\r\ncontract Albumes{\r\n\r\n    uint public CantidadAlbumes;\r\n\r\n    struct Cancion{\r\n        string NombreCancion;\r\n        string Genero;\r\n        uint DuracionSegundos;\r\n    }\r\n\r\n    struct Album{\r\n        uint CantidadCanciones;\r\n        uint id;\r\n        string NombreAlbum;\r\n        string ArtistaAlbum;\r\n        mapping (uint => Cancion) canciones;\r\n    }\r\n\r\n    mapping (uint => Album) public albumes;\r\n\r\n\r\n    function agregarAlbum(string memory _Nombre, string memory _Artista) public{\r\n        CantidadAlbumes++;\r\n        albumes[CantidadAlbumes].id = CantidadAlbumes;\r\n        albumes[CantidadAlbumes].NombreAlbum = _Nombre;\r\n        albumes[CantidadAlbumes].ArtistaAlbum= _Artista;\r\n        albumes[CantidadAlbumes].CantidadCanciones = 0;\r\n\r\n    }\r\n\r\n    function agregarCancion (uint id_album, string memory _NombreCancion, string memory _Genero, uint _DuracionSegundos) public {\r\n        albumes[id_album].CantidadCanciones++;\r\n        uint indice = albumes[id_album].CantidadCanciones;\r\n        albumes[id_album].canciones[indice].NombreCancion = _NombreCancion;\r\n        albumes[id_album].canciones[indice].Genero = _Genero;\r\n        albumes[id_album].canciones[indice].DuracionSegundos = _DuracionSegundos;\r\n\r\n    }\r\n\r\n\r\n\r\n\r\n\r\n}",
  "sourcePath": "C:/Users/GL 502V2/Desktop/BlockChain-Spotify/blockchain/contracts/Albumes.sol",
  "compiler": {
    "name": "solc",
    "version": "0.5.16+commit.9c3226ce.Emscripten.clang"
  },
  "schemaVersion": "3.3.3",
  "updatedAt": "2020-12-23T04:09:39.629Z",
  "networkType": "ethereum",
  "devdoc": {
    "methods": {}
  },
  "userdoc": {
    "methods": {}
  }
}